{
  "contractName": "Temperature",
  "abi": [
    {
      "inputs": [
        {
          "internalType": "address[]",
          "name": "_oracles",
          "type": "address[]"
        }
      ],
      "stateMutability": "nonpayable",
      "type": "constructor"
    },
    {
      "anonymous": false,
      "inputs": [
        {
          "indexed": false,
          "internalType": "uint256",
          "name": "id",
          "type": "uint256"
        }
      ],
      "name": "NewRequest",
      "type": "event"
    },
    {
      "anonymous": false,
      "inputs": [
        {
          "indexed": true,
          "internalType": "address",
          "name": "previousOwner",
          "type": "address"
        }
      ],
      "name": "OwnershipRenounced",
      "type": "event"
    },
    {
      "anonymous": false,
      "inputs": [
        {
          "indexed": true,
          "internalType": "address",
          "name": "previousOwner",
          "type": "address"
        },
        {
          "indexed": true,
          "internalType": "address",
          "name": "newOwner",
          "type": "address"
        }
      ],
      "name": "OwnershipTransferred",
      "type": "event"
    },
    {
      "anonymous": false,
      "inputs": [
        {
          "indexed": false,
          "internalType": "uint256",
          "name": "id",
          "type": "uint256"
        },
        {
          "indexed": false,
          "internalType": "uint256",
          "name": "agreedValue",
          "type": "uint256"
        }
      ],
      "name": "UpdatedRequest",
      "type": "event"
    },
    {
      "inputs": [],
      "name": "owner",
      "outputs": [
        {
          "internalType": "address",
          "name": "",
          "type": "address"
        }
      ],
      "stateMutability": "view",
      "type": "function",
      "constant": true
    },
    {
      "inputs": [],
      "name": "renounceOwnership",
      "outputs": [],
      "stateMutability": "nonpayable",
      "type": "function"
    },
    {
      "inputs": [
        {
          "internalType": "address",
          "name": "_newOwner",
          "type": "address"
        }
      ],
      "name": "transferOwnership",
      "outputs": [],
      "stateMutability": "nonpayable",
      "type": "function"
    },
    {
      "inputs": [],
      "name": "createRequest",
      "outputs": [],
      "stateMutability": "nonpayable",
      "type": "function"
    },
    {
      "inputs": [
        {
          "internalType": "uint256",
          "name": "_roundId",
          "type": "uint256"
        },
        {
          "internalType": "uint256",
          "name": "_tempValue",
          "type": "uint256"
        }
      ],
      "name": "updateRequest",
      "outputs": [],
      "stateMutability": "nonpayable",
      "type": "function"
    },
    {
      "inputs": [],
      "name": "getLastRoundData",
      "outputs": [
        {
          "internalType": "uint256",
          "name": "",
          "type": "uint256"
        }
      ],
      "stateMutability": "view",
      "type": "function",
      "constant": true
    }
  ],
  "bytecode": "0x60806040526000600155600160025560006003553480156200002057600080fd5b5060405162000d9938038062000d99833981810160405281019062000046919062000309565b336000806101000a81548173ffffffffffffffffffffffffffffffffffffffff021916908373ffffffffffffffffffffffffffffffffffffffff16021790555060005b81518110156200010b57600160056000848481518110620000af57620000ae6200035a565b5b602002602001015173ffffffffffffffffffffffffffffffffffffffff1673ffffffffffffffffffffffffffffffffffffffff1681526020019081526020016000208190555080806200010290620003c2565b91505062000089565b508051600381905550506200040f565b6000604051905090565b600080fd5b600080fd5b600080fd5b6000601f19601f8301169050919050565b7f4e487b7100000000000000000000000000000000000000000000000000000000600052604160045260246000fd5b6200017f8262000134565b810181811067ffffffffffffffff82111715620001a157620001a062000145565b5b80604052505050565b6000620001b66200011b565b9050620001c4828262000174565b919050565b600067ffffffffffffffff821115620001e757620001e662000145565b5b602082029050602081019050919050565b600080fd5b600073ffffffffffffffffffffffffffffffffffffffff82169050919050565b60006200022a82620001fd565b9050919050565b6200023c816200021d565b81146200024857600080fd5b50565b6000815190506200025c8162000231565b92915050565b6000620002796200027384620001c9565b620001aa565b905080838252602082019050602084028301858111156200029f576200029e620001f8565b5b835b81811015620002cc5780620002b788826200024b565b845260208401935050602081019050620002a1565b5050509392505050565b600082601f830112620002ee57620002ed6200012f565b5b81516200030084826020860162000262565b91505092915050565b60006020828403121562000322576200032162000125565b5b600082015167ffffffffffffffff8111156200034357620003426200012a565b5b6200035184828501620002d6565b91505092915050565b7f4e487b7100000000000000000000000000000000000000000000000000000000600052603260045260246000fd5b7f4e487b7100000000000000000000000000000000000000000000000000000000600052601160045260246000fd5b6000819050919050565b6000620003cf82620003b8565b91507fffffffffffffffffffffffffffffffffffffffffffffffffffffffffffffffff820362000404576200040362000389565b5b600182019050919050565b61097a806200041f6000396000f3fe608060405234801561001057600080fd5b50600436106100625760003560e01c80635cdb46421461006757806367a449b814610083578063715018a6146100a15780638da5cb5b146100ab578063c9579078146100c9578063f2fde38b146100d3575b600080fd5b610081600480360381019061007c919061067e565b6100ef565b005b61008b6102e4565b60405161009891906106cd565b60405180910390f35b6100a9610353565b005b6100b3610451565b6040516100c09190610729565b60405180910390f35b6100d1610475565b005b6100ed60048036038101906100e89190610770565b6104e9565b005b60006004600084815260200190815260200160002090506001600560003373ffffffffffffffffffffffffffffffffffffffff1673ffffffffffffffffffffffffffffffffffffffff16815260200190815260200160002054148015610196575060008160030160003373ffffffffffffffffffffffffffffffffffffffff1673ffffffffffffffffffffffffffffffffffffffff16815260200190815260200160002054145b156102df5760018160030160003373ffffffffffffffffffffffffffffffffffffffff1673ffffffffffffffffffffffffffffffffffffffff168152602001908152602001600020819055506000805b8061023a5760008360020160008481526020019081526020016000205403610227576001905083836002016000848152602001908152602001600020819055505b8180610232906107cc565b9250506101e6565b6000805b6003548110156102da578585600201600083815260200190815260200160002054036102c757818061026f906107cc565b92505060025482106102c6578585600101819055507f207013439b1226b811bacf3a1b13fd53cffa04a367673e1cd9fded9928c2fb25856000015486600101546040516102bd929190610814565b60405180910390a15b5b80806102d2906107cc565b91505061023e565b505050505b505050565b6000806001541161032a576040517f08c379a00000000000000000000000000000000000000000000000000000000081526004016103219061089a565b60405180910390fd5b600460006001805461033c91906108ba565b815260200190815260200160002060010154905090565b60008054906101000a900473ffffffffffffffffffffffffffffffffffffffff1673ffffffffffffffffffffffffffffffffffffffff163373ffffffffffffffffffffffffffffffffffffffff16146103ab57600080fd5b60008054906101000a900473ffffffffffffffffffffffffffffffffffffffff1673ffffffffffffffffffffffffffffffffffffffff167ff8df31144d9c2f0f6b59d69b8b98abd5459d07f2742c4df920b25aae33c6482060405160405180910390a260008060006101000a81548173ffffffffffffffffffffffffffffffffffffffff021916908373ffffffffffffffffffffffffffffffffffffffff160217905550565b60008054906101000a900473ffffffffffffffffffffffffffffffffffffffff1681565b6000600460006001548152602001908152602001600020905060015481600001819055507fe5e7dd91b3ed7fb84c335f117423d1b9bbbed2d76c57e81520dd681b9ede98856001546040516104ca91906106cd565b60405180910390a1600180546104e091906108ee565b60018190555050565b60008054906101000a900473ffffffffffffffffffffffffffffffffffffffff1673ffffffffffffffffffffffffffffffffffffffff163373ffffffffffffffffffffffffffffffffffffffff161461054157600080fd5b61054a8161054d565b50565b600073ffffffffffffffffffffffffffffffffffffffff168173ffffffffffffffffffffffffffffffffffffffff160361058657600080fd5b8073ffffffffffffffffffffffffffffffffffffffff1660008054906101000a900473ffffffffffffffffffffffffffffffffffffffff1673ffffffffffffffffffffffffffffffffffffffff167f8be0079c531659141344cd1fd0a4f28419497f9722a3daafe3b4186f6b6457e060405160405180910390a3806000806101000a81548173ffffffffffffffffffffffffffffffffffffffff021916908373ffffffffffffffffffffffffffffffffffffffff16021790555050565b600080fd5b6000819050919050565b61065b81610648565b811461066657600080fd5b50565b60008135905061067881610652565b92915050565b6000806040838503121561069557610694610643565b5b60006106a385828601610669565b92505060206106b485828601610669565b9150509250929050565b6106c781610648565b82525050565b60006020820190506106e260008301846106be565b92915050565b600073ffffffffffffffffffffffffffffffffffffffff82169050919050565b6000610713826106e8565b9050919050565b61072381610708565b82525050565b600060208201905061073e600083018461071a565b92915050565b61074d81610708565b811461075857600080fd5b50565b60008135905061076a81610744565b92915050565b60006020828403121561078657610785610643565b5b60006107948482850161075b565b91505092915050565b7f4e487b7100000000000000000000000000000000000000000000000000000000600052601160045260246000fd5b60006107d782610648565b91507fffffffffffffffffffffffffffffffffffffffffffffffffffffffffffffffff82036108095761080861079d565b5b600182019050919050565b600060408201905061082960008301856106be565b61083660208301846106be565b9392505050565b600082825260208201905092915050565b7f4e6f20726f756e64206461746100000000000000000000000000000000000000600082015250565b6000610884600d8361083d565b915061088f8261084e565b602082019050919050565b600060208201905081810360008301526108b381610877565b9050919050565b60006108c582610648565b91506108d083610648565b9250828210156108e3576108e261079d565b5b828203905092915050565b60006108f982610648565b915061090483610648565b9250827fffffffffffffffffffffffffffffffffffffffffffffffffffffffffffffffff038211156109395761093861079d565b5b82820190509291505056fea264697066735822122091fe73f32e1c32e11bd4b6a65ea1d147451fb7e6fae5a0d59378be1629fa6dd764736f6c634300080d0033",
  "immutableReferences": {},
  "source": "// SPDX-License-Identifier: MIT\r\npragma solidity 0.8.13;\r\n\r\nimport \"./Ownable.sol\";\r\n\r\n// @title Simple Oracle Contract for Decenteralized Temperature\r\n// @author  Yuki Wadana\r\ncontract Temperature is Ownable {\r\n  \r\n  uint256 roundId = 0;                    //increasing request id\r\n  uint256 minQuorum = 1;                  //minimum number of responses to receive before declaring final result\r\n  uint256 totalOracleCount = 0;           // Hardcoded oracle count\r\n  \r\n  mapping(uint256 => Request) requests;\r\n\r\n  // defines a general api request\r\n  struct Request {\r\n    uint256 id;                           //request id    \r\n    uint256 temperature;                  //value from key\r\n    mapping(uint256 => uint256) anwers;   //answers provided by the oracles\r\n    mapping(address => uint256) quorum;   //oracles which will query the answer (1=oracle hasn't voted, 2=oracle has voted)\r\n  }\r\n  \r\n mapping(address => uint256) oracles;\r\n\r\n  //event that triggers oracle outside of the blockchain\r\n  event NewRequest (uint256 id);\r\n\r\n  //triggered when there's a consensus on the final result\r\n  event UpdatedRequest (\r\n    uint256 id,\r\n    uint256 agreedValue\r\n  );\r\n\r\n  constructor (address[] memory _oracles)  {\r\n      for(uint256 i =0; i<_oracles.length ; i++){\r\n          oracles[_oracles[i]] = 1;\r\n      }\r\n      totalOracleCount = _oracles.length;\r\n  }\r\n\r\n  function createRequest () external\r\n  {\r\n    Request storage r = requests[roundId];\r\n\r\n    r.id = roundId;  \r\n\r\n    // launch an event to be detected by oracle outside of blockchain\r\n    emit NewRequest (roundId); \r\n\r\n    roundId = roundId + 1;   \r\n  }\r\n\r\n  // setter of temperature\r\n  // called by the oracle to record its answer\r\n  function updateRequest (\r\n    uint256 _roundId,\r\n    uint256 _tempValue\r\n  ) external {\r\n\r\n    Request storage currRequest = requests[_roundId];\r\n\r\n    //check if oracle is in the list of trusted oracles\r\n    //and if the oracle hasn't voted yet\r\n    if(oracles[msg.sender] == 1 && currRequest.quorum[address(msg.sender)] == 0){\r\n\r\n      //marking that this address has voted\r\n      currRequest.quorum[msg.sender] = 1;\r\n\r\n      //iterate through \"array\" of answers until a position if free and save the retrieved value\r\n      uint256 tmpI = 0;\r\n      bool found = false;\r\n      while(!found) {\r\n        //find first empty slot\r\n        if(currRequest.anwers[tmpI] == 0){\r\n          found = true;\r\n          currRequest.anwers[tmpI] = _tempValue;\r\n        }\r\n        tmpI++;\r\n      }\r\n\r\n      uint256 currentQuorum = 0;\r\n\r\n      //iterate through oracle list and check if enough oracles(minimum quorum)\r\n      //have voted the same answer has the current one\r\n      for(uint256 i = 0; i < totalOracleCount; i++){\r\n \r\n        if(currRequest.anwers[i] == _tempValue){\r\n          currentQuorum++;\r\n          if(currentQuorum >= minQuorum){\r\n            currRequest.temperature = _tempValue;\r\n            emit UpdatedRequest (\r\n              currRequest.id,              \r\n              currRequest.temperature\r\n            );\r\n          }\r\n        }\r\n      }      \r\n    }\r\n  }\r\n\r\n  // getter of temperature\r\n  function getLastRoundData() external view returns (uint256){\r\n    require(roundId > 0, 'No round data');\r\n    return requests[roundId - 1].temperature;\r\n  }\r\n}",
  "sourcePath": "/mnt/e/Blockchain/Solidity/Simple-Oracle/contracts/Temperature.sol",
  "compiler": {
    "name": "solc",
    "version": "0.8.13+commit.abaa5c0e.Emscripten.clang"
  },
  "schemaVersion": "3.4.5",
  "updatedAt": "2022-03-27T17:22:19.649Z",
  "networkType": "ethereum",
  "devdoc": {
    "kind": "dev",
    "methods": {
      "renounceOwnership()": {
        "details": "Allows the current owner to relinquish control of the contract."
      },
      "transferOwnership(address)": {
        "details": "Allows the current owner to transfer control of the contract to a newOwner.",
        "params": {
          "_newOwner": "The address to transfer ownership to."
        }
      }
    },
    "version": 1
  },
  "userdoc": {
    "kind": "user",
    "methods": {
      "renounceOwnership()": {
        "notice": "Renouncing to ownership will leave the contract without an owner. It will not be possible to call the functions with the `onlyOwner` modifier anymore."
      }
    },
    "version": 1
  }
}